:02000004600199
:1000000043435530312E56312020202020202020FF
:10001000434355303141444432354331374E30311A
:10010000415050494E544547202020202020202097
:1004000000040020B50601605D0701600D53066021
:10041000610701606307016065070160000000007B
:1004200000000000000000000000000071070160F3
:100430006907016000000000A107016061400560DC
:100440000F590660175906601F5906602759066044
:100450002F590660375906603F59066047590660B4
:100460004F590660575906605F5906606759066024
:100470006F590660775906607F5906608759066094
:100480008F590660975906609F590660A759066004
:10049000AF590660B7590660BF590660C759066074
:1004A000CF590660D7590660DF590660E7590660E4
:1004B000EF590660F7590660FF590660075A066053
:1004C0000F5A0660175A06601F5A0660275A0660C0
:1004D0002F5A0660375A06603F5A0660475A066030
:1004E0004F5A0660575A06605F5A0660675A0660A0
:1004F0006F5A0660775A06607F5A0660875A066010
:100500008F5A0660975A06609F5A0660A75A06607F
:10051000AF5A0660B75A0660BF5A0660C75A0660EF
:10052000CF5A0660D75A0660DF5A0660E75A06605F
:10053000EF5A0660F75A0660FF5A0660075B0660CE
:100540000F5B0660175B06601F5B0660275B06603B
:100550002F5B0660375B06603F5B0660475B0660AB
:100560004F5B0660575B06605F5B0660675B06601B
:100570006F5B0660775B06607F5B0660875B06608B
:10058000EFA7066003A8066017A806602BA8066000
:100590003FA8066053A806608F5B0660975B066005
:1005A00067A806607BA806609F5B0660A75B066085
:1005B000AF5B0660B75B0660BF5B0660C75B06604B
:1005C000CF5B0660D75B0660DF5B0660E75B0660BB
:1005D000EF5B0660F75B0660FF5B0660075C06602A
:1005E0000F5C0660175C06601F5C0660275C066097
:1005F0002F5C0660375C06603F5C0660475C066007
:100600004F5C0660575C06605F5C0660675C066076
:100610006F5C0660775C06607F5C0660875C0660E6
:100620008F5C0660975C06609F5C0660A75C066056
:10063000AF5C0660B75C0660BF5C0660C75C0660C6
:10064000CF5C0660D75C0660DF5C0660E75C066036
:10065000EF5C0660F75C0660FF5C0660075D0660A5
:100660000F5D0660175D06601F5D0660275D066012
:100670002F5D0660375D06606CA6076000040020F1
:100680002C2700006CA6076000000000000000009E
:100690006CA607600000202000000000402B002016
:1006A000C43602000000000000000000000020200E
:1006B0008C63000072B6184B04221A60A3F58043C5
:1006C0004AF6A5225A641A6C42F004021A644FF4E6
:1006D00018029A63114B83F308884EF061F8104BAF
:1006E00007E003F10C049A685968186800F01EF8D6
:1006F00023460C4A9342F4D306E01C46596854F84A
:10070000080B00F022F82346074A9342F5D362B65D
:100710005AF05FFAFEE700BF00000B400004002023
:10072000780601609C060160B406016000239342D4
:100730000AD210B450F8044B41F8044B04339342EE
:10074000F8D35DF8044B70477047002303E00022A4
:1007500040F8042B04338B42F9D37047FEE7FEE7E1
:10076000FEE7FEE7FEE7FEE7FEE7FEE7FEE7FEE761
:10077000074B19680868B0E8F04F80F30988BFF3A9
:100780006F8F4FF0000080F311887047AFF3008047
:10079000545A022000BF00BFFFFFFFFFFFFFFFFF13
:1007A000EFF30980BFF36F8F154B1A681EF0100F1F
:1007B00008BF20ED108A20E9F04F10602DE90900F4
:1007C0004FF0200080F31188BFF34F8FBFF36F8F7E
:1007D00045F060F84FF0000080F3118809BC1968FB
:1007E0000868B0E8F04F1EF0100F08BFB0EC108A98
:1007F00080F30988BFF36F8F704700BFAFF30080AD
:10080000545A022000BF00BF80B598B000AF786096
:1008100039604FF000024FF00003C7E914230023B2
:10082000BB6453F008F9034687F84F300023FB659B
:100830003B68002B03D03B681B68002B01D10023D1
:10084000A2E00023FB653DE03B681A683B689968BD
:10085000FB6D0B4413441B78452B17DC2B2B40DB23
:100860002B3B01229A404E4B1340002B14BF012317
:100870000023DBB2002B0BD102F00803002B14BFC6
:1008800001230023DBB2002B11D12AE0652B28D1F4
:100890003B681A683B689968FB6D0B4413441978F0
:1008A00007F10802FB6D13440A461A7007E007F1CE
:1008B0000802FB6D134497F84F201A7000BFFB6DC0
:1008C0000133FB65FB6D3E2B0DD83B68002B0AD036
:1008D0003B689A68FB6D1A443B685B689A42B3D3E5
:1008E00001E000BF00E000BF07F10802FB6D134408
:1008F00000221A7007F1480207F108031146184652
:1009000000F082FC87ED140BBA6C07F108039A42E1
:1009100001D1002338E097ED147BFDEEC77B17EE85
:10092000902A7B689A6197ED147B9FED196BB4EE6A
:10093000C67BF1EE10FA04DB7B686FF000425A616F
:1009400015E097ED147B9FED146BB4EEC67BF1EED2
:1009500010FA04D87B684FF000425A6107E097ED27
:10096000147BFDEEC77B17EE902A7B685A617B688B
:100970000822DA603B689B68B96C07F108028A1AA2
:100980001A443B689A60012318466037BD4680BD13
:100990000000C0FFFFFFDF41000000000000E0C1D9
:1009A000E57F0004FFFFFFFF2DE9F04F4FF0000946
:1009B00004462DED068B93B00792CDF80C900E787F
:1009C000002E4DD0252E01F10107DFF8C0A34DD038
:1009D0000AEB0602636892F88020013BD20723D518
:1009E0003D4617F8013B534493F88030DB07F7D4BA
:1009F0006368013B002B636012DB23685A1C226092
:100A000018780AEB000393F88030DE0705D42F46F0
:100A100021465AF033FA3946D1E709F10109E7E7EF
:100A2000204652F0CFF8ECE7002B636008DB236828
:100A30005A1C22601D78B54207D109F10109EAE785
:100A4000204652F0BFF80546F5E7214628465AF001
:100A500015FA013504D1039B13B94FF0FF3303930B
:100A6000039813B0BDEC068BBDE8F08F4B780022E5
:100A7000C54D4FF00A0C2A2B06BF8F1C01260026FD
:100A8000394617F8013B0AEB030090F88000800616
:100A900000F1AE8016F0080F08BF6FF000426C2B1B
:100AA00040F0B3803B7846F002068F1C782BD7DCF1
:100AB000572B00F3B780252B00F0FE80242BCFDDD1
:100AC00023F00203452BCBD14FF0FF356168AB46D5
:100AD0000135013900296160C0F237812168481C65
:100AE000206008780AEB000191F88010C907EDD466
:100AF000431CB0D0002A00F04B812B2800F02B8142
:100B00002D2840F0458146F4007863680BF102051A
:100B1000013B002B6360C0F220812368591C2160D7
:100B20001878013A0023B2EE04AB013A9B460493D5
:100B30009FED8D9B9FED8E8B531C40F02B814FF0D2
:100B40000A0A21465AF09AF903220AFB0BFAB0EE80
:100B5000480B9AFBF2FAABEB0A00059000F0A8FBF9
:100B6000DDED047AB0EE408B0598B8EEE70B00F0AF
:100B70009FFBBBF1000FB0EE406B80F2B181CBF177
:100B8000000B9FED7D4B9FED7E7B9FED795BB0EE83
:100B9000002B1BF0010F17D037EE043BBBF1010F08
:100BA00028EE038B23EE053B27EE065BA4EE063B07
:100BB00051EC150B4FF0000041EC160B35EE465B87
:100BC00035EE035B00F09481B0EE441B4FEA6B0BF3
:100BD00027EE073BA7EE021B51EC130B002041EC64
:100BE000170B33EE473BA4EE013BB0EE434BD0E78F
:100BF000AA423FF735AF0CFB0233B3F130023FF5A9
:100C00002FAF46F0080639463BE74C2B03D13B7823
:100C100046F0120649E7682B7FF448AF3B7846F070
:100C2000040642E7583B202B3FF61AAF01A151F8CA
:100C300023F000BFF9100160610A0160610A0160E0
:100C4000FF100160610A0160610A0160610A0160D0
:100C5000610A0160610A0160610A0160610A016064
:100C6000D90C0160370D0160C90A0160C90A016031
:100C7000C90A0160610A0160F30F0160610A016045
:100C8000610A0160610A0160610A0160F90F016097
:100C90000F10016015100160610A0160610A0160B6
:100CA0001F100160610A0160F1100160610A0160BA
:100CB000610A0160F91001606368013B002B636009
:100CC00005DB23685A1C22601D78252DB4E62046DA
:100CD00051F078FF0546F8E716F0080F08BF01222B
:100CE00016F0010609BF079B0025191D1D6808BFE6
:100CF0000791002A3FF4B4AE09EB020A636809F1D8
:100D00000109013B002B63600FDB23685A1C226042
:100D100018780EB905F8010BD145EFD1002E7FF4FC
:100D20007AAE039B0133039375E6204651F04AFFE8
:100D3000431CEED18FE60A23009246F0200207A959
:100D4000204651F0D7FD0546FEE02046049251F0C2
:100D500039FF049AC6E6B046D7E62046049251F021
:100D600031FF049ADDE600BF9A9999999999B93FA4
:100D70000000000000000000333333333333733E90
:100D8000000000009999C93FCCCCCC0CECA40760C2
:100D9000B046C7E62E2811D118F0400F0ED148F00A
:100DA000400C606801350138002860602DDB206848
:100DB000431C23600078013AE046BDE60AEB0001DF
:100DC00091F88010890628D5049B48F4807CB449AA
:100DD00008F0400E30388B4209DC0A2101FB030386
:100DE0000493BEF1000FDCD00BF1FF3BD9E707EE17
:100DF000900AB8EEE77BA7EE098B89EE0A9BBEF15D
:100E0000000FCED10BF1010BCBE72046CDE905C297
:100E100051F0D8FEDDE905C2CDE720F020014529DB
:100E20007FF48DAE18F4807F3FF489AE616828F4BA
:100E3000C07801390029616020DB2168481C2060EE
:100E400008782B2822D02D281ED09246013500226A
:100E5000AA440A21AAEB050CBCF1000F07DD914B57
:100E600003EB000C9CF880C01CF0200F21D118F07F
:100E7000800F14BFABEB020B934460E62046059253
:100E800051F0A0FE059ADCE748F080086168023561
:100E900001390029616006DB2168481C2060087860
:100EA00002F1FF3AD3E72046059251F08BFE059AF6
:100EB000F6E7303848F48078013501FB02026068BB
:100EC00001380028606004DB2068431C2360007840
:100ED000C0E72046059251F075FE0A21059AB9E750
:100EE00004D0B1EE047B9FED684B4EE69FED665B50
:100EF00038EE050B09A830EE060B00F0A5F9099BAA
:100F00000AEB0300B0F5806F099025DD18F4007F2F
:100F1000654B4FF022029FED5E8B9FED5F7B1A6069
:100F200008FE078B18F4807F3FF49AAD18F0020F8B
:100F300008F0010A2CD0BAF1000F05D1079B1A1D49
:100F40001B68079283ED008B002DFFF682ADF3073F
:100F500040F12981A9445EE56FF47F7398420ADA73
:100F6000B5EE400BF1EE10FA05D04F4B22229FED6B
:100F7000468B1A60D6E718F4007F04D000F098F989
:100F8000B1EE408BCEE700F093F9B0EE408BC9E7AD
:100F9000B0EE480B0AA800F057F90A9B7E33002BED
:100FA0000A9313DCB5EE408BF1EE10FA1ED03E4BE7
:100FB00022229FED3E8A1A60BAF1000FC4D1079B2E
:100FC0001A1D1B68079283ED008ABDE7FE2B0DDD1D
:100FD000B5EEC08B364A374B2221F1EE10FAB8BF7E
:100FE0001346314A93ED008A1160E5E7B7EEC88BEE
:100FF000E2E700230092A0E6079B700753F8042B5A
:1010000007934CBFA2F80090C2F8009003E50823B4
:10101000009292E60092102326F006028FE64FF02F
:10102000FF3563680135013B002B636044DB2368B7
:10103000591C216018780AEB000393F8808018F09F
:101040000108EED1411C3FF406AD16F0010B2A4415
:1010500001BF07990B1DD1F800800793954207D077
:10106000431C05D00AEB000191F88010C90729D56F
:10107000214659F003FFBBF1000F7FF465AF88F8FC
:1010800000B061E7AFF30080000000000000000046
:10109000000000000000F07F000000000000F0FFF2
:1010A0009F860100ECA40760E81901200000000001
:1010B000182B00201C2B00202046049251F082FDAA
:1010C000049AB8E7BBF1000F01D108F8010B616881
:1010D000013501390029616004DB2168481C20606A
:1010E0000878BBE72046049251F06CFD049AB5E7FE
:1010F00000920A23324622E6102300921DE63B7836
:1011000000214FF0010C5E2B0DBF7B7801370025CD
:10111000023708BF0125CDE90A11CDE90C11CDE94F
:101120000E11CDE91011002B3FF49AAC591112A801
:1011300003F01F0300EB81010CFA03F351F8200CBC
:10114000034341F8203C17F8013B5D2BEBD175BB05
:1011500016F0010835D000266368013B002B636060
:1011600034DB2368591C216018780025AA4211D06D
:10117000431C0FD00028034612A9B8BF00F11F037B
:101180005B1101EB830300F01F0153F8203C0B417E
:10119000D90723D4214659F071FEB8F1000F7FF42E
:1011A000D9AE86F80080039B01330393D2E60AA9E7
:1011B000002308680133C043082B41F8040BF8D121
:1011C000C6E7079B191D1E680791C5E720460492D4
:1011D00051F0F8FC421C049AC7D13CE4B8F1000F6E
:1011E00001D106F8010B63680135013B002B6360F8
:1011F00004DB2368591C21601878B7E72046049265
:1012000051F0E0FC049AB1E730B585B00C460C49CA
:10121000054601AB02AA59F031FD002805DC04B1F6
:1012200025609FED050B05B030BD14B1019B1D4439
:1012300025609DED020BF6E70000000000000000B5
:10124000E6A40760FFFFFFFFB5EE400B70B5F1EEBF
:1012500010FA04D100239FED140B036070BD55EC10
:10126000104BC5F30A53A3F2FE319BB9C5F3130625
:1012700010EE103ADA0FB6F5002F4FEA430342EAB8
:101280004602C2F3130202D201391646F2E762F3B4
:1012900013051C4640F2FE33016063F31E5545EC16
:1012A000104BDBE7AFF300800000000000000000FF
:1012B000B5EE400BF1EE10FA02D19FED0D0B704729
:1012C00053EC102BC3F30A51084440F2FE718842DC
:1012D00005DD0B4B22229FED080B1A60704700289A
:1012E000EBDD60F31E5343EC102B7047AFF300802F
:1012F0000000000000000000000000000000F07F7F
:10130000E819012080B584B000AF78600023FB604D
:101310004FF0FF33BB607968044851F06BFEBA6848
:10132000F968786851F026FE00BEFDE790B30660CC
:1013300080B584B000AF786043F22153FB81012275
:1013400079680A4859F05BF90346FB81FB89002B59
:1013500002D00123FB8103E0054B1B780023FB81B6
:10136000FB8918461037BD4680BD00BFDC790020E0
:10137000C861022080B584B000AF786039607B68B6
:10138000002BFCD03B68002B01D1002313E00C4B59
:101390001B68002B01D100230DE03A6879680948E9
:1013A00059F01DF90346FB81FB89002B01D13B68F5
:1013B00001E04FF0FF3318461037BD4680BD00BF37
:1013C000E0790020D879002080B584B000AF786043
:1013D0007B68002BFCD00C4B1B68002B02D14FF01C
:1013E000FF330CE07868FFF7A3FF0346002B02D120
:1013F0000123FB6002E04FF0FF33FB60FB681846FF
:101400001037BD4680BD00BFE079002080B5A4B094
:1014100000AF786039600023C7F888300023C7F830
:101420008C3007F1080380220021184659F0D8FBC0
:101430000E4B1B68002B12D007F108020C4B3968C9
:10144000786852F01EF8C7F88800D7F8882007F1AE
:10145000080311461846FFF78DFFC7F88C00D7F830
:101460008C3018469037BD4680BD00BFE079002023
:101470008F2F0660F1B5002A4BD011F0030306D080
:1014800011F8014B013A00F8014B42D0F5E710F09A
:1014900003031BD1102A04DB103AF0C9102AF0C054
:1014A000FAD2130744BF30C930C0530744BF51F8C4
:1014B000044B40F8044B930744BF31F8024B20F82B
:1014C000024BD30744BF0C78047022E0C3070AD450
:1014D000042A16D351F8044B043A20F8024B250C89
:1014E00020F8025BF4E7042A0BD351F8044B043ACA
:1014F00000F8014B250A20F8025B260E00F8016B6C
:10150000F1E7002A1EBF11F8014B00F8014B013A28
:10151000F7D1F1BD80B483B000AF0346FB80B7F9CB
:101520000630002B0BDBFB8803F01F020749B7F9DD
:1015300006305B09012000FA02F241F8232000BFC7
:101540000C37BD465DF8047B704700BF00E100E04A
:1015500080B483B000AF03463960FB80B7F9063032
:10156000002B0ADB3B68DAB20C49B7F906301201EE
:10157000D2B20B4483F800230AE03B68DAB2084990
:10158000FB8803F00F03043B1201D2B20B441A761E
:1015900000BF0C37BD465DF8047B704700E100E0FA
:1015A00000ED00E090B589B000AF0346FB716B4BD6
:1015B0001B78032B40F0B680FB79694A4FF48561B4
:1015C00001FB03F3134403F503731B78052B40F071
:1015D000A980FB79624A4FF4856101FB03F3134450
:1015E00003F20D231B78AA2B40F09C80FB79072B7C
:1015F00001D90023EFE107F1080300221A605A60C5
:101600001A720923BB7705233B72FB790133203320
:101610003B44012203F8182CFB79514A4FF48561B1
:1016200001FB03F3134403F584631B68002B0AD00A
:10163000FB794B4A4FF4856101FB03F3134403F537
:1016400084631B689847FB79072B53D801A252F893
:1016500023F000BF751601608516016095160160C4
:10166000A5160160B5160160C5160160D5160160AA
:10167000E5160160BA7F07F10803194639484CF0B6
:1016800007F938E0BA7F07F10803194636484CF0ED
:10169000FFF830E0BA7F07F10803194633484CF0F1
:1016A000F7F828E0BA7F07F10803194630484CF0F4
:1016B000EFF820E0BA7F07F1080319462D484CF0F7
:1016C000E7F818E0BA7F07F1080319462A484CF0FA
:1016D000DFF810E0BA7F07F10803194627484CF0FD
:1016E000D7F808E0BA7F07F10803194624484CF000
:1016F000CFF800E000BFFB79194A4FF4856101FB88
:1017000003F3134403F224431B68002B0AD0FB7934
:10171000134A4FF4856101FB03F3134403F224439E
:101720001B689847FB79002B01D0002353E100236D
:10173000FB770023BB8300237B8300233B830023B1
:101740007B61104B1B687B617B69002B1CD0FB7994
:1017500001337A699A4217D0FB7F3CE16442202032
:1017600000040020004018400080184000C01840CD
:1017700000001940004019400080194000C0194085
:1017800000001A40E4790020FB79954A4FF4856106
:1017900001FB03F3134403F503731B78AA2B40F0FA
:1017A0001981FB798E4A4FF4856101FB03F31344E1
:1017B00003F20D231B78552B40F00C81FB79884AEE
:1017C0004FF4856101FB03F3134403F20E231B78EE
:1017D000002B40F0FF80FB79814A4FF4856101FBCB
:1017E00003F3134403F20F231B78502B40F0F280D5
:1017F000FB797B4A4FF4856101FB03F3134403F249
:101800001C431B68072B40F2E580FB79744A4FF4B8
:10181000856101FB03F3134403F21C431B68B3F51A
:10182000967F80F0D780FB794FF4856202FB03F34B
:1018300003F20B236A4A1344181DFB79684A4FF4DC
:10184000856101FB03F3134403F21C431B68073B50
:101850000022194603F052FC03467B83FA79FB7998
:101860005F494FF4856000FB03F30B4403F21C4314
:101870001B68043B5A494FF4856000FB02F20A449E
:10188000134403F503731B781AB2F979FB795448B2
:101890004FF4856404FB03F3034403F21C431B6809
:1018A000033B4F484FF4856404FB01F101440B44B2
:1018B00003F503731B781BB21B021BB213431BB24D
:1018C000BB837A8BBB8B9A4240F08480FB79444A7D
:1018D0004FF4856101FB03F3134403F212231B78D9
:1018E0001AB2FB793E494FF4856000FB03F30B44C9
:1018F00003F213231B781BB21B021BB213431BB250
:101900003B833B8B184603F0A5FE0346012B01D019
:10191000FB7F60E0FB79324A4FF4856101FB03F302
:10192000134403F211231B781B029BB2FA792C4952
:101930004FF4856000FB02F20A4402F5047212784B
:1019400013449BB20A339AB2264BA3F81821254BB5
:10195000B3F81831B3F5967F17D2FB794FF485624F
:1019600002FB03F303F502731D4A134404331D4ABB
:10197000B2F8182119461B48FFF77CFD0123FB77BD
:10198000194B1B78002B25D101E0FB7F23E00020C1
:1019900015F022FA0346002B1AD1012015F01CFA8B
:1019A0000346002B14D1104B01221A70FB7901332E
:1019B0000E4A13600121002015F03AFA012101209E
:1019C00015F036FA0A4B1B68184643F0FFFB01E09E
:1019D0000023FB77FB7F18462437BD4690BD00BF30
:1019E0000004002000002020CC610220E4790020C7
:1019F0005085002080B582B000AF03463960FB718E
:101A00001346BB80FB79002B04D1FB79062B01D94F
:101A100000235BE0FB792F4A4FF4856101FB03F360
:101A2000134408331B684FF0FF31184642F0FAFEAA
:101A3000BA88FB7927494FF4856000FB03F30B4418
:101A400003F21C431B689A420FD2FB794FF4856264
:101A500002FB03F303F502731E4A13440433BA88EE
:101A600019463868FFF706FD17E0FB794FF48562E9
:101A700002FB03F303F50273164A1344191DFB79A5
:101A8000144A4FF4856000FB03F3134403F21C4334
:101A90001B681A463868FFF7EDFCFB790D4A4FF4D6
:101AA000856101FB03F31344083318680023002207
:101AB000002142F0D9FCFB79064A4FF4856101FB15
:101AC00003F3134403F21C431B689BB21846083708
:101AD000BD4680BD0004002080B483B000AF034643
:101AE000FB71FB79064A4FF4856101FB03F3134454
:101AF0001B6818460C37BD465DF8047B704700BF75
:101B00000004002080B500AF0421024851F030FEEF
:101B100000BF80BD00801B4080B500AF042102489B
:101B200051F035FE00BF80BD00801B4080B500AF86
:101B30004FF40051024851F01BFE00BF80BD00BFB2
:101B400000001C4080B500AF4FF40051024851F036
:101B50001EFE00BF80BD00BF00001C4080B500AF6E
:101B60004FF40021024851F003FE00BF80BD00BFCA
:101B700000001C4080B500AF4FF40021024851F036
:101B800006FE00BF80BD00BF00001C4080B500AF56
:101B90004FF08071024851F0EBFD00BF80BD00BFE7
:101BA00000001C4080B500AF4FF08071024851F03A
:101BB000EEFD00BF80BD00BF00001C4080B584B0BA
:101BC00000AF0346B9607A60FB735C4B1B78032B54
:101BD00000F0B180BB68B3F5007F00F2AB807B689A
:101BE000002B00F0A780FB7B072B00F2A380FB7B80
:101BF000534A4FF4856101FB03F3134408331B6818
:101C00004FF0FF31184642F00DFEFB7B4FF485622A
:101C100002FB03F308334A4A13440433BA68796871
:101C20001846FFF727FCFB7B454A4FF4856101FB13
:101C300003F3134403F58263BA681A60FB7B404ADE
:101C40004FF4856101FB03F3134403F584631B68C0
:101C5000002B0AD0FB7B3A4A4FF4856101FB03F36A
:101C6000134403F584631B689847FB7B354A52F89D
:101C70002300FB7B344A52F82310FB7B4FF4856230
:101C800002FB03F303F581632D4A134404331A4620
:101C90004CF050F9FB7B2A4A4FF4856101FB03F3BA
:101CA000134404331B68002B0ED0FB7B244A4FF4F3
:101CB000856101FB03F3134404331B684FF448713F
:101CC000184642F0AFFD03E04FF4487043F058F877
:101CD000FB7B1C4A52F82320FB7B1B4951F8233025
:101CE000194610464CF016FAFB7B154A4FF48561F5
:101CF00001FB03F3134403F224431B68002B0AD0B7
:101D0000FB7B0F4A4FF4856101FB03F3134403F29D
:101D100024431B689847FB7B094A4FF4856101FB0C
:101D200003F313440833186800230022002142F013
:101D30009BFB00E000BF1037BD4680BD6442202001
:101D400000040020789207609892076080B586B002
:101D500000AFF860B9607A603B607B6840F2165271
:101D600093425BD1FB682F4A93422BD0FB682E4AEB
:101D7000934225D0FB682D4A93421FD0FB682C4A22
:101D8000934219D0FB682B4A934213D0FB682A4A2E
:101D900093420DD0FB68294A934207D0FB68284A3A
:101DA000934201D107230EE0FF230CE006230AE053
:101DB000052308E0042306E0032304E0022302E0F5
:101DC000012300E00023FB75FB7D072B25D8FB7D5D
:101DD0001C4A4FF4856101FB03F3134404331B6871
:101DE000002B1BD0FB7D174A4FF4856101FB03F3E9
:101DF000134404331B6807F110021146184656F0CD
:101E0000BDFA3B69002B09D00F4B4FF080521A608E
:101E1000BFF34F8FBFF36F8F00E000BF1837BD4691
:101E200080BD00BF004018400080184000C018402E
:101E300000001940004019400080194000C01940BE
:101E400000001A400004002004ED00E080B584B0DA
:101E500000AF0346FB71FB79072B78D8FB793E4A2C
:101E600052F82300FB793D4A52F82310FB794FF4D6
:101E7000856202FB03F303F58363394A1344043399
:101E80001A464CF093F9FB79334A52F82320FB7938
:101E9000324951F82330194610464CF061F9FB796C
:101EA0001846FFF77FFB0346012B17D12D4B1B680C
:101EB000002B36D02B4B1B6807F10C02114618463D
:101EC00056F05CFAFB68002B2BD0274B4FF080526A
:101ED0001A60BFF34F8FBFF36F8F22E0FB79204A68
:101EE0004FF4856101FB03F313441B68002B18D0EA
:101EF000FB791B4A4FF4856101FB03F313441B6814
:101F000007F10C021146184656F038FAFB68002B10
:101F100007D0154B4FF080521A60BFF34F8FBFF3BD
:101F20006F8FFB790C4A52F82300FB790B4A52F869
:101F30002310FB794FF4856202FB03F303F5826300
:101F4000074A134404331A464CF06CF800E000BF13
:101F50001037BD4680BD00BF789207609892076039
:101F6000000400204C85002004ED00E080B582B024
:101F700000AF03460A46FB711346BB71BB79022BC7
:101F800022D0022B2EDC002B02D0012B0ED029E018
:101F9000FB79174A52F82300FB79164A52F823308E
:101FA0001A464FF416514BF0C5FA1CE0FB79104A63
:101FB00052F82300FB790F4A52F823301A464FF4A7
:101FC000E1314BF0B7FA0EE0FB79094A52F82300F1
:101FD000FB79084A52F823301A464FF496414BF0E9
:101FE000A9FA00E000BF00BF0837BD4680BD00BFB2
:101FF00078920760B892076080B582B000AF034660
:10200000FB71FA79FB794FF4856101FB02F208322A
:1020100028490A44043227494FF4856000FB03F342
:102020000B4403F20C431A60FB79224A4FF485619A
:1020300001FB03F3134403F583634FF400721A604A
:10204000FA79FB794FF4856101FB02F202F5027225
:1020500018490A44043217494FF4856000FB03F322
:102060000B4403F214431A60FB79134A52F823001D
:10207000FB79124A52F82310FB794FF4856202FB78
:1020800003F303F582630B4A134404331A464BF0FF
:10209000C9FFFB79084A52F82320FB79074951F818
:1020A0002330194610464CF035F800BF0837BD46BE
:1020B00080BD00BF000400207892076098920760FE
:1020C00080B582B000AF0346FB71FB79114A32F94B
:1020D000133003211846FFF73BFAFB790E4A52F8FA
:1020E00023304FF4801118464BF094FBFB790A4AD9
:1020F00052F823304FF4801118464BF0C5FAFB79A3
:10210000044A32F91330184651F019FB00BF083762
:10211000BD4680BDD89207607892076090B583B0C5
:1021200000AF0023FB710023FB7134E0FC79032234
:102130000021012055F09FFF024636494FF4856388
:1021400004FB03F30B441A60FC79032200210120F5
:1021500055F091FF02462F494FF4856304FB03F3CA
:102160000B4404331A60FC79012056F00FF8024644
:1021700028494FF4856304FB03F30B4408331A60CA
:10218000FB791846FFF738FFFB791846FFF798FFF1
:10219000FB790133FB71FB79072BC7D91D4B1E4A15
:1021A000C3F820241B4B1D4AC3F82424194B03F504
:1021B00080531A461A4BC2F8E838164B03F5805381
:1021C0001A46184BC2F8EC38124B03F580531A46E6
:1021D000154BC2F8103D0F4B03F580531A46134BB5
:1021E000C2F8143D0B4B03F500531A46104BC2F8CE
:1021F0003831084B03F500531A460E4BC2F83C31F8
:10220000012055F0C3FF03460B4A136000BF0C3793
:10221000BD4690BD00040020051B0160191B016034
:102220002D1B0160451B01605D1B0160751B01607A
:102230008D1B0160A51B0160C487002080B483B0A2
:1022400000AF03463960FB80B7F90630002B0ADB8C
:102250003B68DAB20C49B7F906301201D2B20B442E
:1022600083F800230AE03B68DAB20849FB8803F0F0
:102270000F03043B1201D2B20B441A7600BF0C3795
:10228000BD465DF8047B704700E100E000ED00E032
:1022900080B485B000AFF860B9601346FB71BA68CE
:1022A0000C4B1340BB60FB79002B06D0FB685A68CF
:1022B000BB681A43FB685A6006E0FB685A68BB6853
:1022C000DB431A40FB685A6000BF1437BD465DF817
:1022D000047B704700F0FFFF80B582B000AF3B4643
:1022E00000221A601A7101233B700123FB703B46E8
:1022F000184645F07BFC01224FF400310348FFF7FC
:10230000C7FF00BF0837BD4680BD00BF00C00A4000
:1023100080B400AF044B4AF655221A8000BFBD4678
:102320005DF8047B704700BFA861022080B400AF55
:10233000044B4AF6A5221A8000BFBD465DF8047B17
:10234000704700BFA861022080B588B004AFF86074
:10235000B9607A603B60FB690293BB6901933B689B
:1023600000937B68BA68F968034851F02BFA00BF04
:102370001037BD4680BD00BF4025002080B483B02B
:1023800000AF78607B681B68034A136000BF0C379E
:10239000BD465DF8047B70474025002080B582B0C3
:1023A00000AF7860044B1B680133034A13604FF49D
:1023B0007A7042F0E5FCF5E74025002080B584B056
:1023C00002AF7860012055F0E1FE03460B4A13602E
:1023D00041F0ECFD002301930423009300233222FB
:1023E0000749084856F043FA002042F035FC41F016
:1023F0000DFE00BF0837BD4680BD00BFE879002054
:10240000A4B306609D23016080B586B000AF03468B
:102410000A46FB8013467B71B7F906301B0A7B61C5
:10242000FB8803F01F033B617B69062B02D90C4834
:10243000FEF768FF7A690B4B13449B00FB60032295
:102440003B6902FA03F17A793B6902FA03F31A460F
:10245000F86851F0E9F900BF1837BD4680BD00BFEC
:10246000B4B306601AF0031080B500AF0A4847F015
:1024700015FA0346094A32F91330184651F0FCF9AF
:10248000032045F08BFA034600221946024847F024
:102490001FFF00BF80BD00BF00802D403CA0076033
:1024A00080B582B000AF0346FB710B46BB7113468B
:1024B000BB80BB88BA79F979034856F086FF03469A
:1024C00018460837BD4680BD00802D4080B582B0DB
:1024D00000AF03463A60FB710B46BB71BA79F979DC
:1024E0003B68044847F044FF034618460837BD469A
:1024F00080BD00BF00802D4080B582B000AF0023BA
:102500007B604FF47A7042F03BFC3B1D194640F271
:10251000144003F0BFFC7B68002B0DD07B68042BBC
:102520000AD87A6813469B0013445B001A06094BCD
:102530001343094A136008E0012140F2144003F0FC
:1025400013FB054B054A1A6000BF00BF0837BD46A4
:1025500080BD00BFAC1E010080600220AC1E010ADD
:1025600080B582B000AF7860062204497868FEF733
:1025700081FF00BF0837BD4680BD00BF082B00208B
:1025800080B586B004AF786023484CF033FA002160
:10259000002040F059FA214847F080F90346204ACC
:1025A00032F91330184651F067F900221D491B48D3
:1025B00047F08EFEFFF7A0FF1B4B02931B4B0193CE
:1025C0001B4B00931B4B1C4A1C491D483FF070FAE3
:1025D00000221C491A483FF0A3FA00221A49184861
:1025E0003FF09EFA02E0194850F004FD41F28831B4
:1025F000134855F0B6F90346002BF4D1104851F0BA
:102600004AF941F0D3FC002042F026FB41F0FEFCE9
:1026100000BF0837BD4680BD082B002000802D403C
:102620003CA007604059730799290560193105607E
:10263000F42A00208860022084600220806002204A
:102640008C60022031A704603164066020B406600B
:1026500080B584B000AF78600B467B8013463B802A
:102660000123FB603B88082B02D91548FEF74AFE80
:10267000144B00221A60134B50229A80114B0122F6
:102680009A717B880F4A93600E4B0222DA600D4AE2
:102690007B6813613B880B4A53610A490A4856F02C
:1026A0006CFAF860FB68002B05D0084B1B780133EF
:1026B000DAB2064B1A70FB6818461037BD4680BD6B
:1026C0007CB40660D42A00203C600220C96102204C
:1026D00080B584B000AF78600B467B8013463B80AA
:1026E0000123FB603B88082B02D91548FEF70AFE40
:1026F000144B00221A60134B50229A80114B002277
:102700009A717B880F4A93600E4B0222DA600D4A61
:102710007B6813613B880B4A53610A490A4856F0AB
:102720002CFAF860FB68002B05D0084B1B780133AE
:10273000DAB2064B1A70FB6818461037BD4680BDEA
:10274000B8B40660D42A00203C600220C96102208F
:1027500080B58EB000AF78603960A74A07F11403E6
:1027600092E8030083E8030007F10C0300221A60DB
:102770005A600023FB72082387F8373000233B633D
:102780000023FB6200233B620023FB8300237B7753
:10279000002387F82730994B1B68002B02D19848FB
:1027A000FEF7B0FD954B1B684FF0FF31184642F025
:1027B00039F87B6840F2F63293420DD87B68A3F576
:1027C0007A733B633B6B013B9B01FB62082387F8F9
:1027D00037308C4BBB620CE07B68A3F2F7333B6372
:1027E0003B6B7F331B01FB62022387F83730864B3C
:1027F000BB623B6B013BBA6A13441B787B777B7FE0
:10280000002B05D197F83730013B87F8273003E0DC
:102810007B7F013B87F8273097F83730022B24D98C
:10282000022042F0ADFAA523FB7297F82730DA00B8
:10283000FB6A134407333B623B6A99B207F10B030F
:1028400001221846FFF744FF0346002B0DD06F4BC3
:102850001B6801336D4A1360684B1868002300221F
:10286000002141F001FE0023C1E097F83730012B31
:1028700023D9022042F084FAF523FB727B7FDA0031
:10288000FB6A134407333B623B6A99B207F10B03BF
:1028900001221846FFF71CFF0346002B0DD05B4BAF
:1028A0001B680133594A1360544B186800230022F7
:1028B000002141F0D9FD002399E03B681B16DBB2F3
:1028C0007B753B681B14DBB2BB753B681B12DBB22C
:1028D000FB753B68DBB23B7607F114030521184614
:1028E00002F030F80346FB83FB8B1B0A9BB2DBB282
:1028F0007B76FB8BDBB2BB7697F83730013B3A6BCC
:10290000013AB96A0A441278934206D13B6B013B03
:10291000BA6A134400221A7007E03B6B013BBA6AA3
:1029200013441A780132D2B21A70032042F028FA06
:102930003B6B013BBA6A13441B78DB00FA6A134411
:102940003B623B6A99B207F1140308221846FFF76D
:10295000BFFE0346002B0DD02C4B1B6801332B4AC6
:102960001360264B186800230022002141F07CFDF3
:1029700000233CE0032042F003FA3B6A99B207F1DE
:102980000C0308221846FFF763FE0346002B0DD008
:102990001E4B1B6801331D4A1360184B1868002337
:1029A0000022002141F060FD002320E007F10C012E
:1029B00007F114030822184650F077FF0346012B55
:1029C0000DD0124B1B680133104A13600B4B186873
:1029D00000230022002141F047FD002307E0074BC0
:1029E000186800230022002141F03EFD0123184613
:1029F0003837BD4680BD00BFE89207606085002083
:102A0000F4B40660EC790020FC790020587A0020AC
:102A100080B58EB000AF786039600023BB610023C1
:102A200087F8373007F1080300221A605A60002344
:102A30003B630023FB6200237B61082387F82B3074
:102A400000237B62002387F82330002387F822309D
:102A5000002387F82130002387F8203000237B8271
:102A600000233B82684B1B68002B02D16748FEF7AE
:102A700049FC654B1B684FF0FF31184641F0D2FE10
:102A80007B68B3F57A7F08D07B6840F2F7329342D7
:102A900003D07B68B3F58A6F08D15B4B18680023BD
:102AA0000022002141F0E0FC0123A9E07B6840F214
:102AB000F63293420DD87B68A3F57A733B633B6B88
:102AC000013B9B01FB62082387F82B30504BFB61D5
:102AD0000CE07B68A3F2F7333B633B6B7F331B0156
:102AE000FB62022387F82B304A4BFB61002387F8F7
:102AF000213061E0012042F043F997F82130DB00FA
:102B0000FA6A13447B617B6999B207F108030822D2
:102B10001846FFF79DFD0346002B43D17B7B1BB27C
:102B20001B021AB2BB7B1BB213431BB27B8207F1A1
:102B300008030521184601F005FF03463B827A8A07
:102B40003B8A9A4233D13B7AA52B30D17B7A1A0645
:102B5000BB7A1B041A43FB7A1B0213433A7B1343D1
:102B6000BB61FB7BFF2B10D1012387F823303B6B2C
:102B7000013BFA69134497F821201A703B68BA693F
:102B80001A60012387F837301CE0FB7BF52B0ED150
:102B9000012387F8223097F8213087F82030BB696D
:102BA0007B6204E01C4B1B6801331B4A136097F8DF
:102BB0002130013387F8213097F8212097F82B3006
:102BC0009A4297D397F82330002B10D197F82230F0
:102BD000012B0CD17A6A3B681A603B6B013BFA69A6
:102BE000134497F820201A70012387F83730064BDA
:102BF000186800230022002141F036FC97F8373096
:102C000018463837BD4680BD6085002030B5066067
:102C1000EC790020FC790020587A002080B584B03F
:102C200000AF78600B467B8013463B803B88002BCF
:102C300000F0BA800023FB730023BB7300237B7377
:102C400000233B733B88FB725A4B1B68002B02D15D
:102C50005948FEF757FB574B1B684FF0FF3118469A
:102C600041F0E0FD7B88DBB203F007037B737B7BE5
:102C7000C3F108033B733B7B9BB23A889A4205D968
:102C80003B88DAB23B7BD31ADBB201E03B88DBB294
:102C9000FB72FB7ADB08FB73FB7A03F00703BB7361
:102CA0003B7B002B24D03B7B9BB23A889A421FD9B6
:102CB0003B7B9AB27B8819467868FFF709FD03468B
:102CC000002B0CD1052042F05BF83B7B9AB27B884D
:102CD00013447B803B7B7A6813447B6008E0354B70
:102CE000186800230022002141F0BEFB01235CE0B4
:102CF000FB7B002B32D1BB7B9AB27B88194678686C
:102D0000FFF7E6FC0346002B03D1052042F038F81C
:102D100043E0284B186800230022002141F0A4FB67
:102D2000012342E07B88082219467868FFF7D0FC2F
:102D30000346002B09D1052042F022F87B88083396
:102D40007B807B6808337B6008E01A4B186800239F
:102D50000022002141F088FB012326E0FB7B5A1E64
:102D6000FA73002BDED1BB7B002B16D0BB7B9AB253
:102D70007B8819467868FFF7ABFC0346002B03D12C
:102D8000052041F0FDFF08E00A4B186800230022EF
:102D9000002141F069FB012307E0064B186800237E
:102DA0000022002141F060FB002318461037BD4689
:102DB00080BD00BF608500206CB5066080B584B022
:102DC00000AF78600B467B8013463B803B88002B2E
:102DD00000F0BA800023FB730023BB7300237B73D6
:102DE00000233B733B88FB725A4B1B68002B02D1BC
:102DF0005948FEF787FA574B1B684FF0FF311846CA
:102E000041F010FD7B88DBB203F007037B737B7B13
:102E1000C3F108033B733B7B9BB23A889A4205D9C6
:102E20003B88DAB23B7BD31ADBB201E03B88DBB2F2
:102E3000FB72FB7ADB08FB73FB7A03F00703BB73BF
:102E40003B7B002B24D03B7B9BB23A889A421FD914
:102E50003B7B9AB27B8819467868FFF7F9FB0346FB
:102E6000002B0CD1052041F08BFF3B7B9AB27B8875
:102E700013447B803B7B7A6813447B6008E0354BCE
:102E8000186800230022002141F0EEFA01235CE0E3
:102E9000FB7B002B32D1BB7B9AB27B8819467868CA
:102EA000FFF7D6FB0346002B03D1052041F068FF56
:102EB00043E0284B186800230022002141F0D4FA97
:102EC000012342E07B88082219467868FFF7C0FB9F
:102ED0000346002B09D1052041F052FF7B880833BF
:102EE0007B807B6808337B6008E01A4B18680023FE
:102EF0000022002141F0B8FA012326E0FB7B5A1E94
:102F0000FA73002BDED1BB7B002B16D0BB7B9AB2B1
:102F10007B8819467868FFF79BFB0346002B03D19B
:102F2000052041F02DFF08E00A4B1868002300221D
:102F3000002141F099FA012307E0064B18680023AD
:102F40000022002141F090FA002318461037BD46B8
:102F500080BD00BF60850020A8B5066080B582B046
:102F600000AF0346FB71FB79032B37D801A252F85F
:102F700023F000BF852F01609B2F0160B12F0160FE
:102F8000C72F016000221721174850F0AEFC002225
:102F90001621154850F0A9FC21E000221721124803
:102FA00050F0A3FC012216210F4850F09EFC16E0C1
:102FB000012217210C4850F098FC002216210A48E3
:102FC00050F093FC0BE001221721074850F08DFCD4
:102FD00001221621044850F088FC00E000BF00BF29
:102FE0000837BD4680BD00BF00C01B4080B483B021
:102FF00000AF0346FB80B7F90630002B0BDBFB88E4
:1030000003F01F020749B7F906305B09012000FAF7
:1030100002F241F8232000BF0C37BD465DF8047B67
:10302000704700BF00E100E080B582B000AF78607B
:103030007968044800F018F8034618460837BD467A
:1030400080BD00BF00001D4080B582B000AF786039
:103050007968044800F008F8034618460837BD466A
:1030600080BD00BF00401D4080B586B000AF7860D5
:10307000396000237B6107F10C0300221A605A605B
:103080003B68FB607B682B4A934225D12A4B1B6827
:103090004FF0FF31184641F0C5FB284B1B783B74BD
:1030A00007F10C031A462649786848F0E9FC786174
:1030B000224B1B780E2B04D8204B1B780133DBB23C
:1030C00000E001231D4A13701B4B186800230022E7
:1030D000002141F0C9F928E07B681A4A934224D1C3
:1030E000194B1B684FF0FF31184641F09BFB174B03
:1030F0001B783B7407F10C031A461549786848F0B1
:10310000BFFC7861114B1B782E2B04D80F4B1B781A
:103110000133DBB200E020230C4A13700A4B18681D
:1031200000230022002141F09FF97B6918461837DF
:10313000BD4680BD00001D40647A0020222B002087
:103140006C7A002000401D40687A0020232B00206C
:10315000C47C002080B586B000AFF860B9607A60AA
:103160003B607B6841F2B94293423FD07B6841F2B9
:10317000B942934265DC7B6841F2B642934205DC7A
:103180007B6841F2B54293425DDA5AE07B6841F2D6
:10319000B842934255D13B680F2B56D93B681F2B41
:1031A00053D83B68103BDB002B4A13441A46B968DE
:1031B000F86848F0F9FC0346002B46D1274B186805
:1031C0003B68103B244A52F8331007F114020023E5
:1031D00055F022F87B69002B37D0214B4FF08052FD
:1031E0001A60BFF34F8FBFF36F8F2EE03B680F2B3A
:1031F0002DD93B681F2B2AD83B68103BDB00164AB1
:1032000013441A46B968F86848F0CEFC0346002B10
:103210001DD1124B18683B68103B0F4A52F833100F
:1032200007F11402002354F0F7FF7B69002B0ED046
:103230000B4B4FF080521A60BFF34F8FBFF36F8F6D
:1032400005E000BF04E000BF02E000BF00E000BFF7
:1032500000BF1837BD4680BD1C7F00205C7A00206F
:1032600004ED00E080B586B000AFF860B9607A6028
:103270003B607B6841F2B94293423FD07B6841F2A8
:10328000B942934265DC7B6841F2B642934205DC69
:103290007B6841F2B54293425DDA5AE07B6841F2C5
:1032A000B842934255D13B682F2B56D93B683F2BF0
:1032B00053D83B68303BDB002B4A13441A46B968AD
:1032C000F86848F071FC0346002B46D1274B18687C
:1032D0003B68303B244A52F8331007F114020023B4
:1032E00054F09AFF7B69002B37D0214B4FF080526E
:1032F0001A60BFF34F8FBFF36F8F2EE03B682F2B09
:103300002DD93B683F2B2AD83B68303BDB00164A5F
:1033100013441A46B968F86848F046FC0346002B87
:103320001DD1124B18683B68303B0F4A52F83310DE
:1033300007F11402002354F06FFF7B69002B0ED0BD
:103340000B4B4FF080521A60BFF34F8FBFF36F8F5C
:1033500005E000BF04E000BF02E000BF00E000BFE6
:1033600000BF1837BD4680BD9C7F0020607A0020DA
:1033700004ED00E080B582B000AF0023FB710022B5
:1033800010214FF4967054F076FE03463F4A1360C6
:10339000002210214FF4967054F06DFE03463C4A13
:1033A0001360012054F0F2FE03463A4A13600120F4
:1033B00054F0ECFE0346384A13600023374A38497C
:1033C000384848F0E5FA0023374A3849384848F089
:1033D000DFFA0021334856F0F5FA0021344856F060
:1033E000F1FA242050F092FA252050F08FFA1023A1
:1033F000FB711EE0FB79103B2E4ADB001344FA7987
:103400001A71FB79A3F11002FB79103B12012A49D2
:103410000A44284941F83320FB79103BDB00254A58
:1034200013441A461E491F4848F0BEFBFB7901337E
:10343000FB71FB791E2BDDD93023FB711EE0FB797C
:10344000303B1E4ADB001344FA791A71FB79A3F171
:103450003002FB79303B120119490A44174941F8FF
:103460003320FB79303BDB00144A13441A460F49E2
:103470000F4848F099FBFB790133FB71FB793E2B38
:10348000DDD900BF00BF0837BD4680BD5C7A002093
:10349000607A0020647A0020687A0020553101604B
:1034A0006C7A002000001D4065320160C47C002061
:1034B00000401D401C7F00201C8000209C7F0020BD
:1034C0001C81002080B400AF044B1A68034B5B687A
:1034D00013441846BD465DF8047B70471C820020EB
:1034E00080B483B000AF78607B68002B09D11A4BA1
:1034F0001A4A1A60184B1A4A5A60174B194A9A60AE
:1035000025E0154B154A1A607B681B68002B03D019
:103510007B681B68104A13600F4B114A5A607B6826
:103520005B68002B03D07B685B680B4A53600A4BD7
:1035300000229A60084B1B68084A934207D1064B49
:103540005B68074A934202D1034B064A9A600C37E4
:10355000BD465DF8047B704744250020DD190660F8
:10356000E5AB066015AC066080B584B000AF78604E
:103570000023FB6037E07B681B68FB607B68DB68CF
:1035800003F48073002B08D17B689B68002B04D068
:103590007B689B681846FFF7E7FF7B68DB6803F4EE
:1035A0008073002B09D17B681B69002B05D0124B5F
:1035B0005B687A681269104698477B68DB6803F499
:1035C0000073002B09D17B68DB69002B05D00A4B07
:1035D0005B687A68D26910469847074B5B687868E1
:1035E0009847FB687B607B68002BC4D100BF00BF9D
:1035F0001037BD4680BD00BF4425002080B590B087
:1036000000AF7860396000237B637B689B693B6314
:103610000023FB630023BB6307F1140300221A603D
:103620005A609A60DA601A615A611A8350F003FA9C
:10363000034687F82F303B68002B01D1002368E058
:1036400007F114033A6B354918464FF03BF8F8631D
:1036500007F1080207F114033149184657F00EFB31
:103660000346012B0BD13B6B07EE903AB8EEE76BAC
:1036700097ED027BB4EE476BF1EE10FA07D007F13D
:1036800014033A6B254918464FF01CF8F863FB6B9E
:10369000002B02DBFB6B192B01DD002339E0FB6BF8
:1036A00001331946386850F0CEF978637B6B002BF4
:1036B00001D100232DE00023BB631AE007F11402BF
:1036C000BB6B13441B7897F82F209A4205D17A6B75
:1036D000BB6B13442E221A7008E07A6BBB6B134449
:1036E00007F11401BA6B0A4412781A70BB6B0133EC
:1036F000BB63FB6BBA6B9A42E0D37A6BBB6B134430
:1037000000221A703B689A68FB6B1A443B689A6007
:10371000012318464037BD4680BD00BF841E0760A8
:10372000DCB5066080B58AB000AFF860B9607A6039
:1037300000237B620023FB61FB68BB61002387F8E9
:103740002330002387F82230002387F8213000231C
:1037500087F82030BA68BB69D31A052B40F3B780CD
:10376000BB690233184650F02CFAF861FB69B3F5D7
:103770005C4F04D3FB69B3F5604FC0F0AA80FB69CE
:10378000B3F5584F37D3FB69B3F55C4F33D2BB6900
:1037900006337B6100233B610C2387F82130BA6834
:1037A0007B69D31A052B40F396807B691B785C2BD1
:1037B00040F093807B6901331B78752B40F08D803E
:1037C0007B690233184650F0FCF938613B69B3F568
:1037D0005C4FC0F084803B69B3F5604F7FD2FB69DA
:1037E0009A02434B13403A69C2F30902134303F5AB
:1037F00080337B6204E0062387F82130FB697B621B
:103800007B6A7F2B03D8012387F823301FE07B6A74
:10381000B3F5006F06D2022387F82330C02387F860
:10382000203014E07B6AB3F5803F06D2032387F88B
:103830002330E02387F8203009E07B6AB3F5881F46
:103840004FD2042387F82330F02387F8203097F8ED
:103850002330013B87F8223015E07B6ADBB203F0AE
:103860003F03DAB27B68196897F822300B4462F0A4
:103870007F02D2B21A707B6A9B097B6297F8223072
:10388000013B87F8223097F82230002BE5D197F8DA
:103890002330012B09D97B6AD9B27B681B6897F862
:1038A00020200A43D2B21A7007E07B6ADAB27B6842
:1038B0001B6802F07F02D2B21A707B681A6897F810
:1038C00023301A447B681A6097F821300BE000BF60
:1038D00008E000BF06E000BF04E000BF02E000BF58
:1038E00000E000BF002318462837BD4680BD00BF5A
:1038F00000FC0F0080B58AB000AF786039603B688B
:103900001A683B689B68013313447B623B681A6802
:103910003B689B68013313443B620023FB60002338
:10392000FB613B681A683B689B6813441B78222B39
:1039300040F0038100233B610023BB6117E03B6A39
:103940001B785C2B10D13B6A5A1C3B681B68D31A4E
:103950001A463B685B689A4280F0F180BB6901338C
:10396000BB613B6A01333B623B6A01333B623B68AC
:103970001B683A6AD31A1A463B685B689A4203D2BC
:103980003B6A1B78222BDAD13B681B683A6AD31A50
:103990001A463B685B689A4280F0D3803B6A1B788A
:1039A000222B40F0CE803B681A683B689B6813442A
:1039B0003A6AD31A1A46BB69D31A3B613B681B6942
:1039C0003A69013210469847F861FB69002B00F014
:1039D000BA80FB69FB6094E07B6A1B785C2B08D0A3
:1039E0007A6A531C7B62FB68591CF96012781A7062
:1039F00087E00223FB753A6A7B6AD31A002B40F3F7
:103A0000A4807B6A01331B78752B00F3A0805C2BAC
:103A100004DA222B5CD02F2B5AD098E05C3B192B78
:103A200000F2958001A252F823F000BFD13A016064
:103A30004F3B01604F3B01604F3B01604F3B0160DA
:103A40004F3B0160953A01604F3B01604F3B016085
:103A50004F3B0160A13A01604F3B01604F3B016069
:103A60004F3B01604F3B01604F3B01604F3B0160AA
:103A70004F3B0160AD3A01604F3B01604F3B01603D
:103A80004F3B0160B93A01604F3B0160C53A0160AC
:103A9000E13A0160FB685A1CFA6008221A702CE0B7
:103AA000FB685A1CFA600C221A7026E0FB685A1C4C
:103AB000FA600A221A7020E0FB685A1CFA600D2294
:103AC0001A701AE0FB685A1CFA6009221A7014E096
:103AD0007B6A5A1CFB68591CF96012781A700CE05A
:103AE00007F10C031A46396A786AFFF71BFE034692
:103AF000FB75FB7D002B2CD000BFFB7D7A6A134445
:103B00007B627A6A3B6A9A42FFF466AFFB680022E6
:103B10001A707B681022DA607B68FA691A613B6868
:103B20001B683A6AD31A1A463B689A603B689B68DE
:103B30005A1C3B689A6001231EE000BF0AE000BFE8
:103B400008E000BF06E000BF04E000BF02E000BFE5
:103B500000E000BFFB69002B03D03B685B69F8699C
:103B600098477B6A002B06D03B681B687A6AD31A99
:103B70001A463B689A60002318462837BD4680BD28
:103B800080B588B000AF786039600023FB61002306
:103B90003B610023BB610023FB6000237B613B682A
:103BA000002B01D100230EE17B68002B0FD10321F4
:103BB00038684FF048FF38613B69002B01D1002382
:103BC00001E18349386957F0B9F80123FBE07B68CC
:103BD000FB6124E0FB691B78222B0FDC082B13DB35
:103BE000083B7C4A22FA03F303F00103002B14BFC5
:103BF00001230023DBB2002B02D105E05C2B03D1B3
:103C00007B6901337B6107E0FB691B781F2B02D8BE
:103C10007B6905337B6100BFFB690133FB61FB6995
:103C20001B78002BD6D1FA697B68D31A1A467B69B8
:103C30001344FB60FB680333194638684FF003FFF9
:103C400038613B69002B01D10023BCE07B69002B6C
:103C500017D13B6922221A703B690133FA687968EF
:103C60001846FDF707FCFB6801333A69134422222A
:103C70001A70FB6802333A69134400221A70012358
:103C8000A1E03B6922221A703B690133BB617B686A
:103C9000FB6186E0FB691B781F2B0CD9FB691B7845
:103CA000222B08D0FB691B785C2B04D0FB691A78A7
:103CB000BB691A706FE0BB695A1CBA615C221A704A
:103CC000FB691B78222B3DDC082B59DB083B1A2BA8
:103CD00056D801A252F823F0593D0160793D0160A8
:103CE000693D0160813D0160613D0160713D0160A0
:103CF000813D0160813D0160813D0160813D016048
:103D0000813D0160813D0160813D0160813D016037
:103D1000813D0160813D0160813D0160813D016027
:103D2000813D0160813D0160813D0160813D016017
:103D3000813D0160813D0160813D0160813D016007
:103D4000513D01605C2B1BD1BB695C221A7022E0E3
:103D5000BB6922221A701EE0BB6962221A701AE047
:103D6000BB6966221A7016E0BB696E221A7012E0F7
:103D7000BB6972221A700EE0BB6974221A700AE0E5
:103D8000FB691B781A461449B8694EF09BFCBB6965
:103D90000433BB6100BFFB690133FB61BB690133C5
:103DA000BB61FB691B78002B7FF474AFFB680133A8
:103DB0003A69134422221A70FB6802333A691344A9
:103DC00000221A70012318462037BD4680BD00BF6F
:103DD000E0B5066037000004E4B5066080B582B047
:103DE00000AF78607B68002B07D07B681B68002BD6
:103DF00003D07B689B68002B01D000231CE07B680C
:103E0000002B18D07B689B681A1D7B685B689A4200
:103E100011D27B681A687B689B68134403220849A7
:103E2000184656F0D3FF0346002B04D17B689B68ED
:103E3000DA1C7B689A607B6818460837BD4680BDEF
:103E4000ECB5066080B58EB000AFF860B9607A60FE
:103E500007F1180300221A605A609A60DA601A614A
:103E60005A619A6100237B63414B00221A60404BE8
:103E700000225A60FB68002B43D0FB68BB61F868E6
:103E800056F07DFF03460133FB6100233B62394A54
:103E900007F1280307CA83E8070036484FF0B5FD4D
:103EA00078637B6B002B2ED007F118031846FFF7C1
:103EB00095FF034618464FF0F6FE03461946786B09
:103EC00000F08EF80346002B1FD07B68002B0ED02D
:103ED00007F1180318464FF0E6FE3A6AFB699A426A
:103EE00015D2BA693B6A13441B78002B0FD1BB680B
:103EF000002B04D0BA693B6A1A44BB681A607B6B1A
:103F000031E000BF04E000BF02E000BF00E000BFFE
:103F10007B6B002B02D0786BFFF726FBFB68002B36
:103F200020D0FB683B6100237B613A6AFB699A42BF
:103F300002D23B6A7B6105E0FB69002B02D0FB6982
:103F4000013B7B61BB68002B04D03A697B691A4452
:103F5000BB681A60064B1A4607F1100393E803008A
:103F600082E80300002318463837BD4680BD00BFF5
:103F70001C8200204425002080B58EB000AFF86080
:103F8000B9607A603B6007F11403242200211846CF
:103F900056F026FE7B68002B02DBBB68002B01D1AC
:103FA000002316E0BB687B617B68BB610023FB617B
:103FB00001237B623B68BB62084A07F12C0307CAF6
:103FC00083E8070007F114031946F86800F0F4F8D5
:103FD000034618463837BD4680BD00BF4425002043
:103FE00080B582B000AF786039603B68002B03D0A9
:103FF0003B681B68002B01D10023D2E03B68002BFB
:104000001DD03B689B681A1D3B685B689A4216D8B6
:104010003B681A683B689B6813440422634918464E
:1040200056F0D4FE0346002B09D17B680422DA60E7
:104030003B689B681A1D3B689A600123B1E03B68AE
:10404000002B1DD03B689B685A1D3B685B689A42F9
:1040500016D83B681A683B689B681344052254498C
:10406000184656F0B3FE0346002B09D17B680122A7
:10407000DA603B689B685A1D3B689A60012390E0B8
:104080003B68002B20D03B689B681A1D3B685B682F
:104090009A4219D83B681A683B689B68134404220B
:1040A0004449184656F092FE0346002B0CD17B681B
:1040B0000222DA607B6801225A613B689B681A1D04
:1040C0003B689A6001236CE03B68002B13D03B688F
:1040D0009A683B685B689A420DD23B681A683B68F5
:1040E0009B6813441B78222B05D139687868FFF749
:1040F00001FC034655E03B68002B23D03B689A68DF
:104100003B685B689A421DD23B681A683B689B68B3
:1041100013441B782D2B0FD03B681A683B689B68B3
:1041200013441B782F2B0DD93B681A683B689B689A
:1041300013441B78392B05D839687868FCF764FB81
:1041400003462EE03B68002B13D03B689A683B681F
:104150005B689A420DD23B681A683B689B681344BF
:104160001B785B2B05D1396878684FF0DFFD03467B
:1041700017E03B68002B13D03B689A683B685B688C
:104180009A420DD23B681A683B689B6813441B78BF
:104190007B2B05D1396878684FF00CFF034600E0AF
:1041A000002318460837BD4680BD00BFF0B5066045
:1041B000F8B5066000B6066080B584B000AF7860E0
:1041C00039600023FB607B68002B02D03B68002B2A
:1041D00001D10023C3E07B68DB68DBB2802B00F0F9
:1041E0008880802B00F3BA80202B49DC002B40F321
:1041F000B580013B1F2B00F2B18001A252F823F0E1
:10420000A7420160C74201605D43016087420160CF
:104210005D4301605D4301605D430160E742016011
:104220005D4301605D4301605D4301605D4301608A
:104230005D4301605D4301605D430160394301609E
:104240005D4301605D4301605D4301605D4301606A
:104250005D4301605D4301605D4301605D4301605A
:104260005D4301605D4301605D4301605D4301604A
:104270005D4301605D4301605D4301604543016052
:10428000402B65D06AE0052138684FF0DCFBF86010
:10429000FB68002B01D1002361E03349F86856F038
:1042A0004DFD01235BE0062138684FF0CCFBF86040
:1042B000FB68002B01D1002351E02C49F86856F02F
:1042C0003DFD01234BE0052138684FF0BCFBF86051
:1042D000FB68002B01D1002341E02549F86856F026
:1042E0002DFD01233BE039687868FFF787F9034625
:1042F00035E00023BB607B681B69002B01D10023E4
:104300002DE07B681B69184656F039FD03460133E2
:10431000BB60B96838684FF096FBF860FB68002B0B
:1043200001D100231BE07B681B69BA681946F86855
:10433000FDF7A0F8012312E0396878684FF0A3FC7C
:1043400003460CE0396878684FF0AEFD034606E09E
:10435000396878684FF027FF034600E000231846CD
:104360001037BD4680BD00BFF0B50660F8B50660E9
:1043700000B6066080B588B002AFF860B9607A60B8
:10438000786800F059F8786100230093094B7A6946
:10439000B968F86850F0F9F80346002B01D07B6942
:1043A00003E07869FFF7E0F8002318461837BD46A8
:1043B00080BD00BF4425002080B586B002AF786084
:1043C000396000F073F8F86000230093094BFA6835
:1043D0003968786850F0D9F80346002B01D0FB68A3
:1043E00003E0F868FFF7C0F8002318461037BD4611
:1043F00080BD00BF4425002080B586B002AF786044
:10440000396000F03FF8F86000230093094BFA6828
:104410003968786850F0B9F80346002B01D0FB6882
:1044200003E0F868FFF7A0F8002318461037BD46F0
:1044300080BD00BF4425002080B584B000AF786007
:104440000F484FF0E2FAF860FB68002B12D0FB68CF
:104450001022DA600A4978684FF0AFFA0246FB682A
:104460001A61FB681B69002B04D1F868FFF77CF820
:10447000002300E0FB6818461037BD4680BD00BF32
:104480004425002080B582B000AF07484FF0BDFA48
:1044900078607B68002B02D07B682022DA607B6822
:1044A00018460837BD4680BD4425002080B582B03F
:1044B00000AF07484FF0A9FA78607B68002B02D064
:1044C0007B684022DA607B6818460837BD4680BDAD
:1044D0004425002080B487B000AF0346FB80002352
:1044E0007B8240F27113FB810023BB810023FB829E
:1044F000FB89013BBB8200233B82FB8842F21072A6
:1045000003FB02F2FB88C3F5C043B2FBF3F3BB81AC
:10451000BB8A2D4A32F81330BA899A4201D3BB8A3A
:104520004CE0FB8A284A32F81330BA899A422ED8D6
:10453000FB8A43E0FA8ABB8A13445B087B827B8A4E
:10454000214A32F81330BA899A4225D07B8A013346
:104550001D4A32F81330BA899A4206D27B8A1A4A27
:1045600032F81330BA899A4218D87B8A164A32F840
:104570001330BA899A4202D97B8AFB8201E07B8A96
:10458000BB823B8A5A1C3A82FA899A4208D3FA8A39
:10459000BB8A9A42CED304E000BF02E000BF00E035
:1045A00000BFFA8ABB8A9A4201D9002306E07A8AC0
:1045B000FB899A4201D3FB897B827B8A18461C3790
:1045C000BD465DF8047B70475025002080B487B05D
:1045D00000AF0346FB80A523FB820023BB820023A0
:1045E000FB81FA8ABB8A13449BB25B087B8200235F
:1045F0003B824FF47462CE239A420CD200233B825A
:104600004FF47462FB88934203D3CE22FB8893421B
:104610000ED9002356E001233B824FF47462FB88DD
:10462000934203D8CE22FB88934201D2002349E073
:104630007B8A274A32F81330FA889A4207D23B8A9B
:10464000002B02D17B8AFB8201E07B8ABB827B8AC2
:104650001F4A32F81330FA889A4207D93B8A002B56
:1046600002D17B8ABB8201E07B8AFB827B8A184A6B
:1046700032F81330FA889A4209D0FA8ABB8AD31AE0
:10468000012B04D0BA8AFB8AD31A012B14D17B8A5E
:104690001A46920013441A4691001A460B461344D8
:1046A0009B00FB8100BFFB890A4AA2FB03235B0935
:1046B0009BB214339BB205E0FA8ABB8A13445B08B1
:1046C0007B82B5E718461C37BD465DF8047B704712
:1046D000F09207601F85EB5180B483B000AF786023
:1046E0007B68354A1A607B68344A5A607B680122CD
:1046F0001A737B68072283F846207B684FF4000218
:104700001A657B6803225A737B6803229A737B685D
:10471000012283F844207B6800225A747B680022BF
:10472000DA737B6800221A747B6800225A827B68E5
:1047300000221A777B6810221A647B68042283F8AF
:1047400045207B684FF48072C3F8C0217B684FF42A
:104750008052C3F8C4217B684FF48032C3F8D02163
:104760007B68012283F8C8217B68154AC3F8802042
:104770007B68144AC3F884207B68134AC3F89020EE
:104780007B6840F20642C3F8B0207B680F4AC3F84A
:1047900010217B6842F20422C3F814217B680C4A82
:1047A000C3F8D0207B680B4AC3F8002100BF0C3748
:1047B000BD465DF8047B70474643464200040156FF
:1047C000EB04180A063204260504012432041808F2
:1047D000D7041808D804180880B590B000AF7860E6
:1047E000396007F12C0310220021184656F0F8F921
:1047F000154BFB6207F12C0201230721786849F071
:1048000055FF03233B7207233B6101237B61002398
:10481000FB6000233B763B687B620123BB6207F1B0
:1048200008031946786849F02DFFF8633B681B6858
:104830009D2B04D044F62963FB63FB6B00E0FB6B0C
:1048400018464037BD4680BD9F04042480B582B021
:1048500000AF00233B604FF4007200210E4856F079
:10486000BFF90D48FFF738FF0B49002049F0C6FE9D
:104870007860002049F032FF3B4619460020FFF7E0
:10488000ABFF78607B68002B01D1012300E000239F
:1048900018460837BD4680BD2482002080B586B00A
:1048A00000AFF860B9601346FB8072B600BFBB680A
:1048B000C3F30B03002B0FD1114BD3F8C431BA68EB
:1048C0000F49002049F0C6FE78617B69002B03D0B8
:1048D00062B600BF00230EE0FB68BA6808490020FA
:1048E00049F0A0FE786162B600BF7B69002B01D061
:1048F000002300E0012318461837BD4680BD00BFE5
:104900002482002080B584B000AF7860396072B630
:1049100000BF3B6803F120427B680949002049F051
:1049200081FEF860FB68002B03D062B600BF002355
:1049300002E062B600BF012318461037BD4680BDB5
:104940002482002080B485B000AF78600B467B8065
:104950000023FB73FF23BB73FF237B7316E0FB7BFA
:104960005A1CFA731A467B6813441A78BB7B53406F
:10497000DBB2BB600F4ABB6813441A787B7B5340A1
:10498000BB730D4ABB6813441B787B737B885A1E2C
:104990007A80002BE3D1BB7B1BB21B021AB27B7B5C
:1049A0001BB213431BB29BB218461437BD465DF8C9
:1049B000047B70473C9407603C95076080B485B0E9
:1049C00000AF0346FB710123FB73284B1B78052BBB
:1049D00036D801A252F823F0F1490160054A01607E
:1049E000114A01601D4A0160294A0160354A01608F
:1049F000FB79012B03D81E4B1B68002B23D000230F
:104A0000FB7320E0FB79022B1FD90023FB731CE012
:104A1000FB79032B1BD90023FB7318E0FB79042BD4
:104A200017D90023FB7314E0FB79052B13D900235E
:104A3000FB7310E0FB79062B0FD90023FB730CE00E
:104A40000023FB730AE000BF08E000BF06E000BFE0
:104A500004E000BF02E000BF00E000BFFB7B18469F
:104A60001437BD465DF8047B704700BFCA61022061
:104A7000E479002080B582B000AF0023FB710023F1
:104A8000BB8000233B60254B1B683B603B68002BD1
:104A900004D03B68092B01D0FB793AE0204B9B7A8C
:104AA0001AB21F4B5B7A1BB21B021BB213431BB221
:104AB000BB80BB88DBB21846FFF780FF0346012BA3
:104AC00001D0FB7925E00123FB71164B1B78002BED
:104AD0001ED1002012F080F90346002B16D10120D0
:104AE00012F07AF90346002B10D10E4B01221A70F6
:104AF0000A4B09221A600C4B012283F8B5200A4B9D
:104B0000012283F8AA2100F0C9FC01E00023FB7117
:104B1000FB7918460837BD4680BD00BFE479002008
:104B200028840020CB6102207840202090B589B0F5
:104B300000AF0346FB710023FB830023BB83444B80
:104B400007F10C040FCB84E80F00FB8B20333B44B0
:104B5000AA2203F8142CFB8B0133FB83FB8B20333D
:104B60003B44552203F8142CFB8B0133FB83FB8B56
:104B7000384A127820333B4403F8142CFB8B013362
:104B8000FB83FB8B20333B44802203F8142CFB8BEC
:104B90000133FB83FB8B20333B44282203F8142C86
:104BA000FB8B0133FB83FB8B2B4A527920333B4435
:104BB00003F8142CFB8B0133FB83FB8B264A927981
:104BC00020333B4403F8142CFB8B0133FB83FB8B1A
:104BD00020333B44002203F8142CFB8B0133FB836E
:104BE000FB8B20333B44062203F8142CFB8B013350
:104BF000FB830023BB830EE0BA8BFB8B17498A5CD7
:104C0000D2B220333B4403F8142CFB8B0133FB83DB
:104C1000BB8B0133BB83BB8B042BEDD9FB8B2033C8
:104C20003B44FA7903F8142CFB8B0133FB830C4BC8
:104C30001B68B3F1FF3F06D0FA8B07F10C03114656
:104C4000184612F001FF00BF2437BD4690BD00BFDB
:104C50003C960760A03F20202884002000000160CF
:104C6000D429002090B589B000AF0346FB71002322
:104C7000FB830023BB83444B07F10C040FCB07C419
:104C8000238002341B0C2370FB8B20333B44AA226D
:104C900003F8142CFB8B0133FB83FB8B20333B4449
:104CA000552203F8142CFB8B0133FB83FB8B374A13
:104CB000127820333B4403F8142CFB8B0133FB8325
:104CC000FB8B20333B44802203F8142CFB8B0133F5
:104CD000FB83FB8B20333B44282203F8142CFB8BF3
:104CE0000133FB83FB8B2A4A527920333B4403F880
:104CF000142CFB8B0133FB83FB8B254A92792033E9
:104D00003B4403F8142CFB8B0133FB83FB8B2033D8
:104D10003B44002203F8142CFB8B0133FB83FB8BF9
:104D200020333B44062203F8142CFB8B0133FB8316
:104D30000023BB830BE0FB8B20333B44002203F8B2
:104D4000142CFB8B0133FB83BB8B0133BB83BB8BED
:104D5000042BF0D9FB8B20333B44FA7903F8142C55
:104D6000FB8B0133FB830B4B1B68B3F1FF3F06D07A
:104D7000FA8B07F10C031146184612F065FE00BFCE
:104D80002437BD4690BD00BF4C960760A03F202051
:104D900028840020D429002080B5C4B000AF0023AF
:104DA00087F80F310023A7F80A310023A7F80C3148
:104DB0000023A7F808310023A7F8063107F5887308
:104DC000A3F5887318464FF480731A46002155F0F6
:104DD00007FF0023C7F800318D4B9B7A1AB28C4B2A
:104DE0005B7A1BB21B021BB213431BB2A7F80A313A
:104DF000884B1B781A46B7F80A319342C0F00281FB
:104E0000B7F80A31DAB2834B1A70B7F80A31013BAE
:104E1000052B00F2D08001A252F823F0354E01603C
:104E20008B4E0160A74E0160A74E0160A74E016046
:104E3000654F0160764B5A7B774B1B78DBB29A4209
:104E40001FD1734B9A7B744B5B78DBB29A4218D1BB
:104E50006F4BDA7B704B9B78DBB29A4211D16C4B73
:104E60001A7C6D4BDB78DBB29A420AD1684B5A7CD4
:104E7000694B1B79DBB29A4203D10120FFF756FE42
:104E80009CE00020FFF752FE98E0012387F80F31E5
:104E900064203FF075FF614B4FF0FF321A60604BAA
:104EA00000221A608AE05A4BB3F818310D3BA7F87C
:104EB0000831574B1B7B1AB2554BDB7A1BB21B02D6
:104EC0001BB213431BB2A7F806310023A7F80C311D
:104ED00011E0B7F80C3103F10D02B7F80C314C4971
:104EE000895C07F58872A2F58872D154B7F80C3145
:104EF0000133A7F80C31B7F80C21B7F808319A4202
:104F0000E7D3B7F80631002B28D0B7F80831B3F54E
:104F1000807F23D8B7F80631013B9AB2B7F8081161
:104F20003B46184600F04EF9034687F80F31B7F8B4
:104F300008213B4B1B681344394A1360394B00224C
:104F400083F82022B7F80811344B1A683B461846FC
:104F500000F008F90346314A13602FE0002387F878
:104F60000F312BE02A4B5B7B1A06294B9B7B1B04E2
:104F70001A43274BDB7B1B021343254A127C134346
:104F8000C7F80031254B1B68DB43D7F800219A4254
:104F900013D1234B1B68194623484FF0C5FB03462A
:104FA000012B0AD100F0C6F90346012B05D10123DC
:104FB00087F80F3101E000BF00E000BFB7F80A3109
:104FC000DBB2012B1FD097F80F311846FFF74AFECE
:104FD000B7F80A31DBB2062B15D197F80F31012B48
:104FE00011D111F0D1FE114B1B68002B03D00F4BD8
:104FF0001B6801221A704FF4FA603FF0C1FE4FF0B7
:1050000086FB00E000BF07F58877BD4680BD00BF86
:1050100028840020CA61022000000160448500202D
:10502000488500203843202000011160A889002015
:1050300080B500AF002140F2D37000F095FD002153
:1050400040F6A37000F090FD094B00221A70094B46
:1050500000221A70084B00221A60084B002283F8C5
:10506000B520064B002283F8AA2100BF80BD00BFF7
:10507000CA610220CB610220E47900207840202020
:1050800080B400AFBFF34F8F00BF064BDB6803F463
:10509000E0620449044B1343CB60BFF34F8F00BF62
:1050A00000BFFDE700ED00E00400FA0580B500AFA9
:1050B0000C4B1B78DBB2002B02D10B48FCF722F91A
:1050C0000A4B1B78DBB2002B02D10948FCF71AF916
:1050D000084B1B78DBB2002B02D10748FCF712F912
:1050E00000BF80BD0001016008B6066000000160DD
:1050F00030B606601000016058B6066080B487B014
:1051000000AFF860B9601346FB800023FB820023E8
:105110003B61FB88FB8217E0B7F916301B021AB21D
:10512000FB8A1B0A9BB21846F9683B690B441B7843
:105130004340DBB20A4931F813301BB253401BB273
:10514000FB823B6901333B61BB685A1EBA60002B8E
:10515000E2D1FB8A18461C37BD465DF8047B7047D8
:105160005C96076080B487B000AFF860B9607A6081
:105170004FF0FF337B6100233B617B687B61002341
:105180003B6111E0FA683B6913441B781A467B695E
:105190005340DBB20A4A52F823207B691B0A534072
:1051A0007B613B6901333B613A69BB689A42E9D351
:1051B0007B6918461C37BD465DF8047B704700BF0D
:1051C0005C98076080B5ADF5067D00AF07F5067306
:1051D000A3F5057318600846114607F50673A3F298
:1051E000162302461A8007F50673A3F506730A46CE
:1051F0001A80002387F817320023C7F80C3207F50E
:105200000673A3F5867318464FF480731A4600217F
:1052100055F0E6FC07F50673A3F5037318464FF443
:1052200080731A46002155F0DBFC0023A7F81432E6
:105230000023C7F8103207F50673A3F506731A8822
:105240003A4B13441B02C7F80C320023A7F8143260
:1052500014E0B7F8143207F50672A2F50572126869
:105260001A44B7F81432117807F50672A2F586725F
:10527000D154B7F814320133A7F81432B7F8143206
:10528000FF2BE6D9D7F80C32294A934201D10123EA
:1052900047E0D7F80C3203F1204107F586734FF44D
:1052A00080721846FFF7FAFA07F10C034FF4807288
:1052B000D7F80C1218464FF015FA0023A7F814324D
:1052C00019E0B7F8143207F50672A2F50372D25C42
:1052D000B7F8143207F50671A1F58671CB5C9A42D6
:1052E00004D0D7F810320133C7F81032B7F81432AF
:1052F0000133A7F8143207F50673A3F21623B7F8A3
:1053000014221B889A42DCD3D7F81032002B03D129
:10531000012387F8173202E0002387F8173297F845
:105320001732184607F50677BD4680BD00116000AC
:105330000001116080B58AB000AF002387F82730E4
:1053400007F1140300221A605A609A60DA601C4A5E
:105350003B1D07CA03C31A7007F10D0300221A6030
:10536000C3F803201021174853F01DFD07F1140363
:105370001022144918464FF0B5F9002387F827305A
:1053800014E097F8273028333B4413F8242C97F87F
:10539000273028333B4413F8143C9A4201D00023B1
:1053A00009E097F82730013387F8273097F827303E
:1053B000072BE6D9012318462837BD4680BD00BF1C
:1053C0005C9C07600001116080B582B000AF0023D3
:1053D0007B6000233B60224B1B687B607B68092B52
:1053E00002D07B68012B31D17B68092B16D11D4B74
:1053F0001B68002B12D01B4B1B6842F21071184621
:105400003FF010FA38603B68012B02D1FFF7C4FC73
:105410001BE0FFF70DFE00F029F816E0124B1B68A9
:10542000002B18D0104B1B6842F2107118463FF049
:10543000F9F938603B68012B02D100F083FA0AE0E9
:1054400000F066F900F012F805E004E04FF4967001
:105450003FF096FC00E000BF00BF0837BD4680BDAE
:10546000E4790020248400204C85002080B500AF22
:10547000094B1B68002B0CD0074B1B6818463FF0EC
:10548000B3FC0346032B04D0034B1B6818463FF0C4
:1054900031FD00BF80BD00BF5085002080B500AF4A
:1054A000094B1B68002B0CD0074B1B6818463FF0BC
:1054B0009BFC0346032B04D1034B1B6818463FF0AB
:1054C000FFFD00BF80BD00BF5085002090B587B0B4
:1054D00002AF786040F6B8303FF052FC3EF066FD17
:1054E00003220021012052F0C6FD0346484A136002
:1054F00003220021012052F0BEFD0346454A1360FD
:105500000023FB7331E0FC7B03220021012052F0D9
:10551000B2FD0246404923010B441A60FC7B032282
:105520000021012052F0A7FD02463B4923010B4414
:1055300004331A60FC7B03220021012052F09BFD02
:105540000246354923010B4408331A60FC7B0322D1
:105550000021012052F08FFD02462F4923010B4408
:105560000C331A60FB7B0133FB73FB7B012BCAD925
:105570002A484FF0C2FB2A484FF0BFFB294B01934A
:1055800005230093002340F277122749274853F060
:105590006EF9244B1B6818463FF0ACFC244B01937A
:1055A0000523009300234FF496722249224853F0BA
:1055B0005EF91F4B1B6818463FF09CFC1F4B019384
:1055C00005230093002340F277121D491D4853F034
:1055D0004EF91A4B1B6818463FF08CFC1A4B01938E
:1055E00005230093002340F277121849184853F01E
:1055F0003EF9154B1B6818463FF07CFC00203FF03D
:105600002BFB3EF003FD00BF1437BD4690BD00BF2D
:10561000248400204C850020E08700209C0D202061
:10562000240E2020508500208CB60660F9480660C4
:10563000548500209CB60660B99F01600488002054
:10564000ACB60660899F016008880020BCB6066081
:10565000A19F016080B485B000AF0346FB800123A9
:10566000FB73294B1B88052B39D801A252F823F074
:10567000895601609D560160A9560160B5560160CA
:10568000C1560160D3560160FB88012B03D11F4B2B
:105690001B68002B26D00023FB7323E0FB88022B22
:1056A00022D00023FB731FE0FB88032B1ED00023B6
:1056B000FB731BE0FB88042B1AD00023FB7317E05D
:1056C000FB88042B16D0FB88052B13D00023FB731B
:1056D00010E0FB88062B0FD00023FB730CE00023A7
:1056E000FB730AE000BF08E000BF06E000BF04E073
:1056F00000BF02E000BF00E000BFFB7B184614378C
:10570000BD465DF8047B7047AA610220E479002061
:1057100080B500AF002140F2D37000F025FA0C4BA9
:1057200000221A600B4B00221A800B4B002283F8D8
:10573000B520094B002283F8AA21084B00221A70D9
:10574000002140F6A37000F00FFA00BF80BD00BF3B
:10575000E4790020AA61022078402020CC61022058
:1057600080B5ADF5027D00AF0023A7F80632002317
:10577000A7F804320023A7F8023207F50273A3F555
:10578000027318464FF400731A46002155F028FAA8
:10579000B7F8063207F50272A2F50272AA21D154B7
:1057A000B7F806320133A7F80632B7F8063207F524
:1057B0000272A2F502725521D154B7F806320133B4
:1057C000A7F80632B7F8063207F50272A2F50272A0
:1057D0000021D154B7F806320133A7F80632B7F8E2
:1057E000063207F50272A2F502725021D154B7F8C1
:1057F00006320133A7F80632B7F8063207F502720F
:10580000A2F502720721D154B7F806320133A7F886
:105810000632B7F8063207F50272A2F502720021CD
:10582000D154B7F806320133A7F80632B7F806327A
:1058300007F50272A2F502720121D154B7F80632BF
:105840000133A7F80632B7F8063207F50272A2F55F
:1058500002720021D154B7F806320133A7F806329C
:105860000023A7F8043215E0B7F80422B7F806328F
:1058700033498A5CD1B207F50272A2F50272D154A3
:10588000B7F806320133A7F80632B7F8043201330D
:10589000A7F80432B7F80432042BE5D9B7F806327A
:1058A000D91E3B46033300221846FFF727FC034668
:1058B000A7F80232B7F80632B7F80222D1B207F5DC
:1058C0000272A2F50272D154B7F806320133A7F87A
:1058D0000632B7F802321B0A9AB2B7F80632D1B2D2
:1058E00007F50272A2F50272D154B7F806320133FD
:1058F000A7F80632B7F8063207F50272A2F502726F
:105900000D21D154B7F806320133A7F80632B7F8A3
:10591000063207F50272A2F502720A21D154B7F8D5
:1059200006320133A7F80632B7F806323A4619466E
:105930000020FCF743F900BF07F50277BD4680BDA4
:105940000000016080B584B000AF0023FB7300232A
:105950007B810023BB8100233B810023FB8000234C
:105960003B60794B9B791AB2774BDB791BB21B02F8
:105970001BB213431BB27B81744B1B887A899A42FA
:10598000C0F0DE80714A7B8913807B89013B052B47
:1059900000F2B58001A252F823F000BFB5590160B2
:1059A000075A0160215A0160215A0160215A0160A1
:1059B000B35A0160644B9A7A654B1B78DBB29A420A
:1059C0001ED1614BDA7A624B5B78DBB29A4217D117
:1059D0005D4B1A7B5E4B9B78DBB29A4210D15A4BDF
:1059E0005A7B5B4BDB78DBB29A4209D1564B9A7BF0
:1059F000574B1B79DBB29A4202D1FFF7B1FE81E02F
:105A00004EF081FF7EE00123FB7364203FF0B8F984
:105A1000504B4FF0FF321A604F4B00221A6071E07A
:105A2000494B1B791AB2484B5B791BB21B021BB264
:105A300013431BB29BB2043B3B81434B1B7A1AB20C
:105A4000414B5B7A1BB21B021BB213431BB2FB80A0
:105A50003B89B3F5807F11D80023BB810AE0BB8965
:105A600003F10A02BB893849895C3C4AD154BB899D
:105A70000133BB81BA893B899A42F0D3FB88013B51
:105A80009AB23B8919463548FFF79CFB0346FB73E6
:105A90003A89314B1B6813442F4A13603B892D4AC6
:105AA000126819462D48FFF75DFB0346294A13602B
:105AB00028E0254B9B7A1A06234BDB7A1B041A43FA
:105AC000214B1B7B1B0213431F4A527B13433B603A
:105AD000204B1B68DB433A689A4212D11E4B1B686D
:105AE00019461F484EF020FE0346012B09D1FFF74F
:105AF00021FC0346012B04D10123FB7301E000BF0D
:105B000000E000BF7B89012B1BD0FB7B18464EF0C9
:105B1000E6FF7B89062B14D1FB7B012B11D111F001
:105B200033F9104B1B68002B03D00E4B1B6801226E
:105B30001A704FF4FA603FF023F94EF0E8FD00E0F0
:105B400000BF1037BD4680BD00002020AA610220A2
:105B500000000160588500205C8500201C01202089
:105B600000011160A889002080B588B000AF78607E
:105B700039600023BB6100237B610023FB600023AD
:105B8000FB777B68B3F57A7F40F2A2807B68B3F540
:105B90008A6F80F09D807B68A3F57A72A4491346D2
:105BA0009B0013449B000B4408331B68BB617B685C
:105BB000A3F57A729E4913469B0013449B000B4445
:105BC0001233B3F900301A46BB691344BB617B68DA
:105BD000A3F57A72964913469B0013449B000B442D
:105BE0000C331B687B617B68A3F57A72904913467E
:105BF0009B0013449B000B441233B3F900301A4648
:105C00007B6913447B613A68BB699A4203DC3A685A
:105C10007B699A4201DA002335E17B68A3F57A7348
:105C2000844AD35C002B39D10023FB7711E007F1C4
:105C30000C0319467868FCF7EBFE0346012B05D1EF
:105C4000FB681946786800F02FFA05E0FB7F013306
:105C5000FB77FB7F022BEAD97B68A3F57A73764A40
:105C600052F823303A689A4210D039687868FCF7C5
:105C70006FFD0346012B05D0704B1B6801336F4A43
:105C8000136003E03968786800F00EFA7B68A3F5CA
:105C90007A73684A0121D1540123F4E07B68A3F5AB
:105CA0007A73654A52F823303A689A420ED03968BE
:105CB000786800F0C1FA0346012B05D1396878688D
:105CC0004EF005FD0123DEE00023DCE00123DAE0F5
:105CD0007B68B3F5FA6F1AD97B6840F2DE729342A3
:105CE00015D87B68A3F5FA63554A52F823303A6811
:105CF0009A4200F0C780396878684EF0E8FC7B680B
:105D0000A3F5FA634E493A6841F82320BAE07B686C
:105D100040F6B83293424FD97B68B3F53D6F4BD80C
:105D20003B68002B04D03B68012B01D00023AAE084
:105D30007B68DBB24833DBB203F01F03FB747B6884
:105D4000A3F6B8335B093F4A52F823301A46FB7C6E
:105D500022FA03F303F001023B689A4200F08F80BD
:105D60003B68012B11D17B68A3F6B8335B09354A38
:105D700052F823201046FA7C012101FA02F2024374
:105D80001146304A42F8231011E07B68A3F6B8337D
:105D90005B092C4A52F823201046FA7C012101FAB3
:105DA00002F2D24302401146264A42F823103968D3
:105DB00078684EF08CFC62E07B68B3F57A6F5CD952
:105DC0007B6840F6BA72934257D83B68002B04D0E8
:105DD0003B68012B01D0002355E07B68DBB203F068
:105DE0001F03BB747B68A3F57A635B09164A52F8FC
:105DF00023301A46BB7C22FA03F303F001023B680E
:105E00009A423ED03B68012B20D17B68A3F57A6390
:105E10005B090D4A52F823201046BA7C012101FA91
:105E200002F202431146084A42F8231020E000BF64
:105E3000448A07604C87002068850020B4870020D2
:105E40000887002044870020488700207B68A3F54E
:105E50007A635B090E4A52F823201046BA7C01216E
:105E600001FA02F2D24302401146094A42F82310D5
:105E7000396878684EF02BFC03E0002303E000BF94
:105E800000E000BF012318462037BD4680BD00BF9B
:105E90004887002080B584B000AF786039603B68E7
:105EA000002B05D03B68002B02D03B68002B01D1B2
